{
  "_format": "hh-sol-artifact-1",
  "contractName": "NonFunToken",
  "sourceName": "contracts/NonFunToken.sol",
  "abi": [
    {
      "inputs": [],
      "stateMutability": "nonpayable",
      "type": "constructor"
    },
    {
      "anonymous": false,
      "inputs": [
        {
          "indexed": true,
          "internalType": "address",
          "name": "owner",
          "type": "address"
        },
        {
          "indexed": true,
          "internalType": "address",
          "name": "approved",
          "type": "address"
        },
        {
          "indexed": true,
          "internalType": "uint256",
          "name": "tokenId",
          "type": "uint256"
        }
      ],
      "name": "Approval",
      "type": "event"
    },
    {
      "anonymous": false,
      "inputs": [
        {
          "indexed": true,
          "internalType": "address",
          "name": "owner",
          "type": "address"
        },
        {
          "indexed": true,
          "internalType": "address",
          "name": "operator",
          "type": "address"
        },
        {
          "indexed": false,
          "internalType": "bool",
          "name": "approved",
          "type": "bool"
        }
      ],
      "name": "ApprovalForAll",
      "type": "event"
    },
    {
      "anonymous": false,
      "inputs": [
        {
          "indexed": true,
          "internalType": "address",
          "name": "previousOwner",
          "type": "address"
        },
        {
          "indexed": true,
          "internalType": "address",
          "name": "newOwner",
          "type": "address"
        }
      ],
      "name": "OwnershipTransferred",
      "type": "event"
    },
    {
      "anonymous": false,
      "inputs": [
        {
          "indexed": true,
          "internalType": "address",
          "name": "from",
          "type": "address"
        },
        {
          "indexed": true,
          "internalType": "address",
          "name": "to",
          "type": "address"
        },
        {
          "indexed": true,
          "internalType": "uint256",
          "name": "tokenId",
          "type": "uint256"
        }
      ],
      "name": "Transfer",
      "type": "event"
    },
    {
      "inputs": [
        {
          "internalType": "address",
          "name": "to",
          "type": "address"
        },
        {
          "internalType": "uint256",
          "name": "tokenId",
          "type": "uint256"
        }
      ],
      "name": "approve",
      "outputs": [],
      "stateMutability": "nonpayable",
      "type": "function"
    },
    {
      "inputs": [
        {
          "internalType": "address",
          "name": "owner",
          "type": "address"
        }
      ],
      "name": "balanceOf",
      "outputs": [
        {
          "internalType": "uint256",
          "name": "",
          "type": "uint256"
        }
      ],
      "stateMutability": "view",
      "type": "function"
    },
    {
      "inputs": [
        {
          "internalType": "uint256",
          "name": "tokenId",
          "type": "uint256"
        }
      ],
      "name": "getApproved",
      "outputs": [
        {
          "internalType": "address",
          "name": "",
          "type": "address"
        }
      ],
      "stateMutability": "view",
      "type": "function"
    },
    {
      "inputs": [
        {
          "internalType": "address",
          "name": "owner",
          "type": "address"
        },
        {
          "internalType": "address",
          "name": "operator",
          "type": "address"
        }
      ],
      "name": "isApprovedForAll",
      "outputs": [
        {
          "internalType": "bool",
          "name": "",
          "type": "bool"
        }
      ],
      "stateMutability": "view",
      "type": "function"
    },
    {
      "inputs": [
        {
          "internalType": "address",
          "name": "collector",
          "type": "address"
        },
        {
          "internalType": "uint256",
          "name": "tokenId",
          "type": "uint256"
        }
      ],
      "name": "mintCollectionNFT",
      "outputs": [],
      "stateMutability": "nonpayable",
      "type": "function"
    },
    {
      "inputs": [],
      "name": "name",
      "outputs": [
        {
          "internalType": "string",
          "name": "",
          "type": "string"
        }
      ],
      "stateMutability": "view",
      "type": "function"
    },
    {
      "inputs": [],
      "name": "owner",
      "outputs": [
        {
          "internalType": "address",
          "name": "",
          "type": "address"
        }
      ],
      "stateMutability": "view",
      "type": "function"
    },
    {
      "inputs": [
        {
          "internalType": "uint256",
          "name": "tokenId",
          "type": "uint256"
        }
      ],
      "name": "ownerOf",
      "outputs": [
        {
          "internalType": "address",
          "name": "",
          "type": "address"
        }
      ],
      "stateMutability": "view",
      "type": "function"
    },
    {
      "inputs": [],
      "name": "renounceOwnership",
      "outputs": [],
      "stateMutability": "nonpayable",
      "type": "function"
    },
    {
      "inputs": [
        {
          "internalType": "address",
          "name": "from",
          "type": "address"
        },
        {
          "internalType": "address",
          "name": "to",
          "type": "address"
        },
        {
          "internalType": "uint256",
          "name": "tokenId",
          "type": "uint256"
        }
      ],
      "name": "safeTransferFrom",
      "outputs": [],
      "stateMutability": "nonpayable",
      "type": "function"
    },
    {
      "inputs": [
        {
          "internalType": "address",
          "name": "from",
          "type": "address"
        },
        {
          "internalType": "address",
          "name": "to",
          "type": "address"
        },
        {
          "internalType": "uint256",
          "name": "tokenId",
          "type": "uint256"
        },
        {
          "internalType": "bytes",
          "name": "data",
          "type": "bytes"
        }
      ],
      "name": "safeTransferFrom",
      "outputs": [],
      "stateMutability": "nonpayable",
      "type": "function"
    },
    {
      "inputs": [
        {
          "internalType": "address",
          "name": "operator",
          "type": "address"
        },
        {
          "internalType": "bool",
          "name": "approved",
          "type": "bool"
        }
      ],
      "name": "setApprovalForAll",
      "outputs": [],
      "stateMutability": "nonpayable",
      "type": "function"
    },
    {
      "inputs": [
        {
          "internalType": "bytes4",
          "name": "interfaceId",
          "type": "bytes4"
        }
      ],
      "name": "supportsInterface",
      "outputs": [
        {
          "internalType": "bool",
          "name": "",
          "type": "bool"
        }
      ],
      "stateMutability": "view",
      "type": "function"
    },
    {
      "inputs": [],
      "name": "symbol",
      "outputs": [
        {
          "internalType": "string",
          "name": "",
          "type": "string"
        }
      ],
      "stateMutability": "view",
      "type": "function"
    },
    {
      "inputs": [
        {
          "internalType": "uint256",
          "name": "tokenId",
          "type": "uint256"
        }
      ],
      "name": "tokenURI",
      "outputs": [
        {
          "internalType": "string",
          "name": "",
          "type": "string"
        }
      ],
      "stateMutability": "view",
      "type": "function"
    },
    {
      "inputs": [
        {
          "internalType": "address",
          "name": "from",
          "type": "address"
        },
        {
          "internalType": "address",
          "name": "to",
          "type": "address"
        },
        {
          "internalType": "uint256",
          "name": "tokenId",
          "type": "uint256"
        }
      ],
      "name": "transferFrom",
      "outputs": [],
      "stateMutability": "nonpayable",
      "type": "function"
    },
    {
      "inputs": [
        {
          "internalType": "address",
          "name": "newOwner",
          "type": "address"
        }
      ],
      "name": "transferOwnership",
      "outputs": [],
      "stateMutability": "nonpayable",
      "type": "function"
    }
  ],
  "bytecode": "0x60806040523480156200001157600080fd5b506040518060400160405280600b81526020017f4e6f6e46756e546f6b656e0000000000000000000000000000000000000000008152506040518060400160405280600681526020017f4e4f4e46554e000000000000000000000000000000000000000000000000000081525081600090816200008f919062000412565b508060019081620000a1919062000412565b505050620000c4620000b8620000ca60201b60201c565b620000d260201b60201c565b620004f9565b600033905090565b6000600660009054906101000a900473ffffffffffffffffffffffffffffffffffffffff16905081600660006101000a81548173ffffffffffffffffffffffffffffffffffffffff021916908373ffffffffffffffffffffffffffffffffffffffff1602179055508173ffffffffffffffffffffffffffffffffffffffff168173ffffffffffffffffffffffffffffffffffffffff167f8be0079c531659141344cd1fd0a4f28419497f9722a3daafe3b4186f6b6457e060405160405180910390a35050565b600081519050919050565b7f4e487b7100000000000000000000000000000000000000000000000000000000600052604160045260246000fd5b7f4e487b7100000000000000000000000000000000000000000000000000000000600052602260045260246000fd5b600060028204905060018216806200021a57607f821691505b60208210810362000230576200022f620001d2565b5b50919050565b60008190508160005260206000209050919050565b60006020601f8301049050919050565b600082821b905092915050565b6000600883026200029a7fffffffffffffffffffffffffffffffffffffffffffffffffffffffffffffffff826200025b565b620002a686836200025b565b95508019841693508086168417925050509392505050565b6000819050919050565b6000819050919050565b6000620002f3620002ed620002e784620002be565b620002c8565b620002be565b9050919050565b6000819050919050565b6200030f83620002d2565b620003276200031e82620002fa565b84845462000268565b825550505050565b600090565b6200033e6200032f565b6200034b81848462000304565b505050565b5b8181101562000373576200036760008262000334565b60018101905062000351565b5050565b601f821115620003c2576200038c8162000236565b62000397846200024b565b81016020851015620003a7578190505b620003bf620003b6856200024b565b83018262000350565b50505b505050565b600082821c905092915050565b6000620003e760001984600802620003c7565b1980831691505092915050565b6000620004028383620003d4565b9150826002028217905092915050565b6200041d8262000198565b67ffffffffffffffff811115620004395762000438620001a3565b5b62000445825462000201565b6200045282828562000377565b600060209050601f8311600181146200048a576000841562000475578287015190505b620004818582620003f4565b865550620004f1565b601f1984166200049a8662000236565b60005b82811015620004c4578489015182556001820191506020850194506020810190506200049d565b86831015620004e45784890151620004e0601f891682620003d4565b8355505b6001600288020188555050505b505050505050565b6129fa80620005096000396000f3fe608060405234801561001057600080fd5b506004361061010b5760003560e01c806370a08231116100a2578063a22cb46511610071578063a22cb465146102a4578063b88d4fde146102c0578063c87b56dd146102dc578063e985e9c51461030c578063f2fde38b1461033c5761010b565b806370a082311461022e578063715018a61461025e5780638da5cb5b1461026857806395d89b41146102865761010b565b80630e46c04c116100de5780630e46c04c146101aa57806323b872dd146101c657806342842e0e146101e25780636352211e146101fe5761010b565b806301ffc9a71461011057806306fdde0314610140578063081812fc1461015e578063095ea7b31461018e575b600080fd5b61012a60048036038101906101259190611b61565b610358565b6040516101379190611ba9565b60405180910390f35b61014861043a565b6040516101559190611c54565b60405180910390f35b61017860048036038101906101739190611cac565b6104cc565b6040516101859190611d1a565b60405180910390f35b6101a860048036038101906101a39190611d61565b610512565b005b6101c460048036038101906101bf9190611d61565b610629565b005b6101e060048036038101906101db9190611da1565b61063f565b005b6101fc60048036038101906101f79190611da1565b61069f565b005b61021860048036038101906102139190611cac565b6106bf565b6040516102259190611d1a565b60405180910390f35b61024860048036038101906102439190611df4565b610745565b6040516102559190611e30565b60405180910390f35b6102666107fc565b005b610270610810565b60405161027d9190611d1a565b60405180910390f35b61028e61083a565b60405161029b9190611c54565b60405180910390f35b6102be60048036038101906102b99190611e77565b6108cc565b005b6102da60048036038101906102d59190611fec565b6108e2565b005b6102f660048036038101906102f19190611cac565b610944565b6040516103039190611c54565b60405180910390f35b6103266004803603810190610321919061206f565b6109ac565b6040516103339190611ba9565b60405180910390f35b61035660048036038101906103519190611df4565b610a40565b005b60007f80ac58cd000000000000000000000000000000000000000000000000000000007bffffffffffffffffffffffffffffffffffffffffffffffffffffffff1916827bffffffffffffffffffffffffffffffffffffffffffffffffffffffff1916148061042357507f5b5e139f000000000000000000000000000000000000000000000000000000007bffffffffffffffffffffffffffffffffffffffffffffffffffffffff1916827bffffffffffffffffffffffffffffffffffffffffffffffffffffffff1916145b80610433575061043282610ac3565b5b9050919050565b606060008054610449906120de565b80601f0160208091040260200160405190810160405280929190818152602001828054610475906120de565b80156104c25780601f10610497576101008083540402835291602001916104c2565b820191906000526020600020905b8154815290600101906020018083116104a557829003601f168201915b5050505050905090565b60006104d782610b2d565b6004600083815260200190815260200160002060009054906101000a900473ffffffffffffffffffffffffffffffffffffffff169050919050565b600061051d826106bf565b90508073ffffffffffffffffffffffffffffffffffffffff168373ffffffffffffffffffffffffffffffffffffffff160361058d576040517f08c379a000000000000000000000000000000000000000000000000000000000815260040161058490612181565b60405180910390fd5b8073ffffffffffffffffffffffffffffffffffffffff166105ac610b78565b73ffffffffffffffffffffffffffffffffffffffff1614806105db57506105da816105d5610b78565b6109ac565b5b61061a576040517f08c379a000000000000000000000000000000000000000000000000000000000815260040161061190612213565b60405180910390fd5b6106248383610b80565b505050565b610631610c39565b61063b8282610cb7565b5050565b61065061064a610b78565b82610cd5565b61068f576040517f08c379a0000000000000000000000000000000000000000000000000000000008152600401610686906122a5565b60405180910390fd5b61069a838383610d6a565b505050565b6106ba838383604051806020016040528060008152506108e2565b505050565b6000806106cb83611063565b9050600073ffffffffffffffffffffffffffffffffffffffff168173ffffffffffffffffffffffffffffffffffffffff160361073c576040517f08c379a000000000000000000000000000000000000000000000000000000000815260040161073390612311565b60405180910390fd5b80915050919050565b60008073ffffffffffffffffffffffffffffffffffffffff168273ffffffffffffffffffffffffffffffffffffffff16036107b5576040517f08c379a00000000000000000000000000000000000000000000000000000000081526004016107ac906123a3565b60405180910390fd5b600360008373ffffffffffffffffffffffffffffffffffffffff1673ffffffffffffffffffffffffffffffffffffffff168152602001908152602001600020549050919050565b610804610c39565b61080e60006110a0565b565b6000600660009054906101000a900473ffffffffffffffffffffffffffffffffffffffff16905090565b606060018054610849906120de565b80601f0160208091040260200160405190810160405280929190818152602001828054610875906120de565b80156108c25780601f10610897576101008083540402835291602001916108c2565b820191906000526020600020905b8154815290600101906020018083116108a557829003601f168201915b5050505050905090565b6108de6108d7610b78565b8383611166565b5050565b6108f36108ed610b78565b83610cd5565b610932576040517f08c379a0000000000000000000000000000000000000000000000000000000008152600401610929906122a5565b60405180910390fd5b61093e848484846112d2565b50505050565b606061094f82610b2d565b600061095961132e565b9050600081511161097957604051806020016040528060008152506109a4565b8061098384611345565b6040516020016109949291906123ff565b6040516020818303038152906040525b915050919050565b6000600560008473ffffffffffffffffffffffffffffffffffffffff1673ffffffffffffffffffffffffffffffffffffffff16815260200190815260200160002060008373ffffffffffffffffffffffffffffffffffffffff1673ffffffffffffffffffffffffffffffffffffffff16815260200190815260200160002060009054906101000a900460ff16905092915050565b610a48610c39565b600073ffffffffffffffffffffffffffffffffffffffff168173ffffffffffffffffffffffffffffffffffffffff1603610ab7576040517f08c379a0000000000000000000000000000000000000000000000000000000008152600401610aae90612495565b60405180910390fd5b610ac0816110a0565b50565b60007f01ffc9a7000000000000000000000000000000000000000000000000000000007bffffffffffffffffffffffffffffffffffffffffffffffffffffffff1916827bffffffffffffffffffffffffffffffffffffffffffffffffffffffff1916149050919050565b610b3681611413565b610b75576040517f08c379a0000000000000000000000000000000000000000000000000000000008152600401610b6c90612311565b60405180910390fd5b50565b600033905090565b816004600083815260200190815260200160002060006101000a81548173ffffffffffffffffffffffffffffffffffffffff021916908373ffffffffffffffffffffffffffffffffffffffff160217905550808273ffffffffffffffffffffffffffffffffffffffff16610bf3836106bf565b73ffffffffffffffffffffffffffffffffffffffff167f8c5be1e5ebec7d5bd14f71427d1e84f3dd0314c0f7b2291e5b200ac8c7c3b92560405160405180910390a45050565b610c41610b78565b73ffffffffffffffffffffffffffffffffffffffff16610c5f610810565b73ffffffffffffffffffffffffffffffffffffffff1614610cb5576040517f08c379a0000000000000000000000000000000000000000000000000000000008152600401610cac90612501565b60405180910390fd5b565b610cd1828260405180602001604052806000815250611454565b5050565b600080610ce1836106bf565b90508073ffffffffffffffffffffffffffffffffffffffff168473ffffffffffffffffffffffffffffffffffffffff161480610d235750610d2281856109ac565b5b80610d6157508373ffffffffffffffffffffffffffffffffffffffff16610d49846104cc565b73ffffffffffffffffffffffffffffffffffffffff16145b91505092915050565b8273ffffffffffffffffffffffffffffffffffffffff16610d8a826106bf565b73ffffffffffffffffffffffffffffffffffffffff1614610de0576040517f08c379a0000000000000000000000000000000000000000000000000000000008152600401610dd790612593565b60405180910390fd5b600073ffffffffffffffffffffffffffffffffffffffff168273ffffffffffffffffffffffffffffffffffffffff1603610e4f576040517f08c379a0000000000000000000000000000000000000000000000000000000008152600401610e4690612625565b60405180910390fd5b610e5c83838360016114af565b8273ffffffffffffffffffffffffffffffffffffffff16610e7c826106bf565b73ffffffffffffffffffffffffffffffffffffffff1614610ed2576040517f08c379a0000000000000000000000000000000000000000000000000000000008152600401610ec990612593565b60405180910390fd5b6004600082815260200190815260200160002060006101000a81549073ffffffffffffffffffffffffffffffffffffffff02191690556001600360008573ffffffffffffffffffffffffffffffffffffffff1673ffffffffffffffffffffffffffffffffffffffff168152602001908152602001600020600082825403925050819055506001600360008473ffffffffffffffffffffffffffffffffffffffff1673ffffffffffffffffffffffffffffffffffffffff16815260200190815260200160002060008282540192505081905550816002600083815260200190815260200160002060006101000a81548173ffffffffffffffffffffffffffffffffffffffff021916908373ffffffffffffffffffffffffffffffffffffffff160217905550808273ffffffffffffffffffffffffffffffffffffffff168473ffffffffffffffffffffffffffffffffffffffff167fddf252ad1be2c89b69c2b068fc378daa952ba7f163c4a11628f55a4df523b3ef60405160405180910390a461105e83838360016115d5565b505050565b60006002600083815260200190815260200160002060009054906101000a900473ffffffffffffffffffffffffffffffffffffffff169050919050565b6000600660009054906101000a900473ffffffffffffffffffffffffffffffffffffffff16905081600660006101000a81548173ffffffffffffffffffffffffffffffffffffffff021916908373ffffffffffffffffffffffffffffffffffffffff1602179055508173ffffffffffffffffffffffffffffffffffffffff168173ffffffffffffffffffffffffffffffffffffffff167f8be0079c531659141344cd1fd0a4f28419497f9722a3daafe3b4186f6b6457e060405160405180910390a35050565b8173ffffffffffffffffffffffffffffffffffffffff168373ffffffffffffffffffffffffffffffffffffffff16036111d4576040517f08c379a00000000000000000000000000000000000000000000000000000000081526004016111cb90612691565b60405180910390fd5b80600560008573ffffffffffffffffffffffffffffffffffffffff1673ffffffffffffffffffffffffffffffffffffffff16815260200190815260200160002060008473ffffffffffffffffffffffffffffffffffffffff1673ffffffffffffffffffffffffffffffffffffffff16815260200190815260200160002060006101000a81548160ff0219169083151502179055508173ffffffffffffffffffffffffffffffffffffffff168373ffffffffffffffffffffffffffffffffffffffff167f17307eab39ab6107e8899845ad3d59bd9653f200f220920489ca2b5937696c31836040516112c59190611ba9565b60405180910390a3505050565b6112dd848484610d6a565b6112e9848484846115db565b611328576040517f08c379a000000000000000000000000000000000000000000000000000000000815260040161131f90612723565b60405180910390fd5b50505050565b606060405180602001604052806000815250905090565b60606000600161135484611762565b01905060008167ffffffffffffffff81111561137357611372611ec1565b5b6040519080825280601f01601f1916602001820160405280156113a55781602001600182028036833780820191505090505b509050600082602001820190505b600115611408578080600190039150507f3031323334353637383961626364656600000000000000000000000000000000600a86061a8153600a85816113fc576113fb612743565b5b049450600085036113b3575b819350505050919050565b60008073ffffffffffffffffffffffffffffffffffffffff1661143583611063565b73ffffffffffffffffffffffffffffffffffffffff1614159050919050565b61145e83836118b5565b61146b60008484846115db565b6114aa576040517f08c379a00000000000000000000000000000000000000000000000000000000081526004016114a190612723565b60405180910390fd5b505050565b60018111156115cf57600073ffffffffffffffffffffffffffffffffffffffff168473ffffffffffffffffffffffffffffffffffffffff16146115435780600360008673ffffffffffffffffffffffffffffffffffffffff1673ffffffffffffffffffffffffffffffffffffffff168152602001908152602001600020600082825461153b91906127a1565b925050819055505b600073ffffffffffffffffffffffffffffffffffffffff168373ffffffffffffffffffffffffffffffffffffffff16146115ce5780600360008573ffffffffffffffffffffffffffffffffffffffff1673ffffffffffffffffffffffffffffffffffffffff16815260200190815260200160002060008282546115c691906127d5565b925050819055505b5b50505050565b50505050565b60006115fc8473ffffffffffffffffffffffffffffffffffffffff16611ad2565b15611755578373ffffffffffffffffffffffffffffffffffffffff1663150b7a02611625610b78565b8786866040518563ffffffff1660e01b8152600401611647949392919061285e565b6020604051808303816000875af192505050801561168357506040513d601f19601f8201168201806040525081019061168091906128bf565b60015b611705573d80600081146116b3576040519150601f19603f3d011682016040523d82523d6000602084013e6116b8565b606091505b5060008151036116fd576040517f08c379a00000000000000000000000000000000000000000000000000000000081526004016116f490612723565b60405180910390fd5b805181602001fd5b63150b7a0260e01b7bffffffffffffffffffffffffffffffffffffffffffffffffffffffff1916817bffffffffffffffffffffffffffffffffffffffffffffffffffffffff19161491505061175a565b600190505b949350505050565b600080600090507a184f03e93ff9f4daa797ed6e38ed64bf6a1f01000000000000000083106117c0577a184f03e93ff9f4daa797ed6e38ed64bf6a1f01000000000000000083816117b6576117b5612743565b5b0492506040810190505b6d04ee2d6d415b85acef810000000083106117fd576d04ee2d6d415b85acef810000000083816117f3576117f2612743565b5b0492506020810190505b662386f26fc10000831061182c57662386f26fc10000838161182257611821612743565b5b0492506010810190505b6305f5e1008310611855576305f5e100838161184b5761184a612743565b5b0492506008810190505b612710831061187a5761271083816118705761186f612743565b5b0492506004810190505b6064831061189d576064838161189357611892612743565b5b0492506002810190505b600a83106118ac576001810190505b80915050919050565b600073ffffffffffffffffffffffffffffffffffffffff168273ffffffffffffffffffffffffffffffffffffffff1603611924576040517f08c379a000000000000000000000000000000000000000000000000000000000815260040161191b90612938565b60405180910390fd5b61192d81611413565b1561196d576040517f08c379a0000000000000000000000000000000000000000000000000000000008152600401611964906129a4565b60405180910390fd5b61197b6000838360016114af565b61198481611413565b156119c4576040517f08c379a00000000000000000000000000000000000000000000000000000000081526004016119bb906129a4565b60405180910390fd5b6001600360008473ffffffffffffffffffffffffffffffffffffffff1673ffffffffffffffffffffffffffffffffffffffff16815260200190815260200160002060008282540192505081905550816002600083815260200190815260200160002060006101000a81548173ffffffffffffffffffffffffffffffffffffffff021916908373ffffffffffffffffffffffffffffffffffffffff160217905550808273ffffffffffffffffffffffffffffffffffffffff16600073ffffffffffffffffffffffffffffffffffffffff167fddf252ad1be2c89b69c2b068fc378daa952ba7f163c4a11628f55a4df523b3ef60405160405180910390a4611ace6000838360016115d5565b5050565b6000808273ffffffffffffffffffffffffffffffffffffffff163b119050919050565b6000604051905090565b600080fd5b600080fd5b60007fffffffff0000000000000000000000000000000000000000000000000000000082169050919050565b611b3e81611b09565b8114611b4957600080fd5b50565b600081359050611b5b81611b35565b92915050565b600060208284031215611b7757611b76611aff565b5b6000611b8584828501611b4c565b91505092915050565b60008115159050919050565b611ba381611b8e565b82525050565b6000602082019050611bbe6000830184611b9a565b92915050565b600081519050919050565b600082825260208201905092915050565b60005b83811015611bfe578082015181840152602081019050611be3565b60008484015250505050565b6000601f19601f8301169050919050565b6000611c2682611bc4565b611c308185611bcf565b9350611c40818560208601611be0565b611c4981611c0a565b840191505092915050565b60006020820190508181036000830152611c6e8184611c1b565b905092915050565b6000819050919050565b611c8981611c76565b8114611c9457600080fd5b50565b600081359050611ca681611c80565b92915050565b600060208284031215611cc257611cc1611aff565b5b6000611cd084828501611c97565b91505092915050565b600073ffffffffffffffffffffffffffffffffffffffff82169050919050565b6000611d0482611cd9565b9050919050565b611d1481611cf9565b82525050565b6000602082019050611d2f6000830184611d0b565b92915050565b611d3e81611cf9565b8114611d4957600080fd5b50565b600081359050611d5b81611d35565b92915050565b60008060408385031215611d7857611d77611aff565b5b6000611d8685828601611d4c565b9250506020611d9785828601611c97565b9150509250929050565b600080600060608486031215611dba57611db9611aff565b5b6000611dc886828701611d4c565b9350506020611dd986828701611d4c565b9250506040611dea86828701611c97565b9150509250925092565b600060208284031215611e0a57611e09611aff565b5b6000611e1884828501611d4c565b91505092915050565b611e2a81611c76565b82525050565b6000602082019050611e456000830184611e21565b92915050565b611e5481611b8e565b8114611e5f57600080fd5b50565b600081359050611e7181611e4b565b92915050565b60008060408385031215611e8e57611e8d611aff565b5b6000611e9c85828601611d4c565b9250506020611ead85828601611e62565b9150509250929050565b600080fd5b600080fd5b7f4e487b7100000000000000000000000000000000000000000000000000000000600052604160045260246000fd5b611ef982611c0a565b810181811067ffffffffffffffff82111715611f1857611f17611ec1565b5b80604052505050565b6000611f2b611af5565b9050611f378282611ef0565b919050565b600067ffffffffffffffff821115611f5757611f56611ec1565b5b611f6082611c0a565b9050602081019050919050565b82818337600083830152505050565b6000611f8f611f8a84611f3c565b611f21565b905082815260208101848484011115611fab57611faa611ebc565b5b611fb6848285611f6d565b509392505050565b600082601f830112611fd357611fd2611eb7565b5b8135611fe3848260208601611f7c565b91505092915050565b6000806000806080858703121561200657612005611aff565b5b600061201487828801611d4c565b945050602061202587828801611d4c565b935050604061203687828801611c97565b925050606085013567ffffffffffffffff81111561205757612056611b04565b5b61206387828801611fbe565b91505092959194509250565b6000806040838503121561208657612085611aff565b5b600061209485828601611d4c565b92505060206120a585828601611d4c565b9150509250929050565b7f4e487b7100000000000000000000000000000000000000000000000000000000600052602260045260246000fd5b600060028204905060018216806120f657607f821691505b602082108103612109576121086120af565b5b50919050565b7f4552433732313a20617070726f76616c20746f2063757272656e74206f776e6560008201527f7200000000000000000000000000000000000000000000000000000000000000602082015250565b600061216b602183611bcf565b91506121768261210f565b604082019050919050565b6000602082019050818103600083015261219a8161215e565b9050919050565b7f4552433732313a20617070726f76652063616c6c6572206973206e6f7420746f60008201527f6b656e206f776e6572206f7220617070726f76656420666f7220616c6c000000602082015250565b60006121fd603d83611bcf565b9150612208826121a1565b604082019050919050565b6000602082019050818103600083015261222c816121f0565b9050919050565b7f4552433732313a2063616c6c6572206973206e6f7420746f6b656e206f776e6560008201527f72206f7220617070726f76656400000000000000000000000000000000000000602082015250565b600061228f602d83611bcf565b915061229a82612233565b604082019050919050565b600060208201905081810360008301526122be81612282565b9050919050565b7f4552433732313a20696e76616c696420746f6b656e2049440000000000000000600082015250565b60006122fb601883611bcf565b9150612306826122c5565b602082019050919050565b6000602082019050818103600083015261232a816122ee565b9050919050565b7f4552433732313a2061646472657373207a65726f206973206e6f74206120766160008201527f6c6964206f776e65720000000000000000000000000000000000000000000000602082015250565b600061238d602983611bcf565b915061239882612331565b604082019050919050565b600060208201905081810360008301526123bc81612380565b9050919050565b600081905092915050565b60006123d982611bc4565b6123e381856123c3565b93506123f3818560208601611be0565b80840191505092915050565b600061240b82856123ce565b915061241782846123ce565b91508190509392505050565b7f4f776e61626c653a206e6577206f776e657220697320746865207a65726f206160008201527f6464726573730000000000000000000000000000000000000000000000000000602082015250565b600061247f602683611bcf565b915061248a82612423565b604082019050919050565b600060208201905081810360008301526124ae81612472565b9050919050565b7f4f776e61626c653a2063616c6c6572206973206e6f7420746865206f776e6572600082015250565b60006124eb602083611bcf565b91506124f6826124b5565b602082019050919050565b6000602082019050818103600083015261251a816124de565b9050919050565b7f4552433732313a207472616e736665722066726f6d20696e636f72726563742060008201527f6f776e6572000000000000000000000000000000000000000000000000000000602082015250565b600061257d602583611bcf565b915061258882612521565b604082019050919050565b600060208201905081810360008301526125ac81612570565b9050919050565b7f4552433732313a207472616e7366657220746f20746865207a65726f2061646460008201527f7265737300000000000000000000000000000000000000000000000000000000602082015250565b600061260f602483611bcf565b915061261a826125b3565b604082019050919050565b6000602082019050818103600083015261263e81612602565b9050919050565b7f4552433732313a20617070726f766520746f2063616c6c657200000000000000600082015250565b600061267b601983611bcf565b915061268682612645565b602082019050919050565b600060208201905081810360008301526126aa8161266e565b9050919050565b7f4552433732313a207472616e7366657220746f206e6f6e20455243373231526560008201527f63656976657220696d706c656d656e7465720000000000000000000000000000602082015250565b600061270d603283611bcf565b9150612718826126b1565b604082019050919050565b6000602082019050818103600083015261273c81612700565b9050919050565b7f4e487b7100000000000000000000000000000000000000000000000000000000600052601260045260246000fd5b7f4e487b7100000000000000000000000000000000000000000000000000000000600052601160045260246000fd5b60006127ac82611c76565b91506127b783611c76565b92508282039050818111156127cf576127ce612772565b5b92915050565b60006127e082611c76565b91506127eb83611c76565b925082820190508082111561280357612802612772565b5b92915050565b600081519050919050565b600082825260208201905092915050565b600061283082612809565b61283a8185612814565b935061284a818560208601611be0565b61285381611c0a565b840191505092915050565b60006080820190506128736000830187611d0b565b6128806020830186611d0b565b61288d6040830185611e21565b818103606083015261289f8184612825565b905095945050505050565b6000815190506128b981611b35565b92915050565b6000602082840312156128d5576128d4611aff565b5b60006128e3848285016128aa565b91505092915050565b7f4552433732313a206d696e7420746f20746865207a65726f2061646472657373600082015250565b6000612922602083611bcf565b915061292d826128ec565b602082019050919050565b6000602082019050818103600083015261295181612915565b9050919050565b7f4552433732313a20746f6b656e20616c7265616479206d696e74656400000000600082015250565b600061298e601c83611bcf565b915061299982612958565b602082019050919050565b600060208201905081810360008301526129bd81612981565b905091905056fea2646970667358221220c60d5cb3013951103321d6b389c35ac90de2064d5ae12e9d45189540cc46aa6f64736f6c63430008110033",
  "linkReferences": {},
  "deployedLinkReferences": {}
}